:020000040800F2
:10000000001000201101000863030008D502000859
:1000100061030008A9010008E117000800000000C2
:10002000000000000000000000000000A909000816
:10003000AB0100080000000051040008AB090008F3
:100040002B0100082B0100082B0100082B010008E0
:100050002B0100082B0100082B0100082B010008D0
:100060002B0100082B0100082B0100082B010008C0
:100070002B0100082B0100082B0100082B010008B0
:100080002B0100082B0100082B0100082D0B000894
:10009000810B00082B0100082B0100082B01000830
:1000A0002B0100082B0100082B0100082B01000880
:1000B0002B0100082B0100082B0100082B01000870
:1000C0002B0100082B0100082B0100082B01000860
:1000D0002B0100082B0100082B0100082B01000850
:1000E0002B0100082B010008090D00082B01000856
:1000F0002B0100082B0100082B010008DFF80CD0B1
:1001000000F040F800480047E51800080010002003
:100110000648804706480047FEE7FEE7FEE7FEE7A1
:10012000FEE7FEE7FEE7FEE7FEE7FEE7B1090008AF
:10013000FD000008D2B201E000F8012B491EFBD2FD
:1001400070470022F6E710B513460A4604461946E2
:10015000FFF7F0FF204610BD30B50B4601460020EA
:100160002022012409E021FA02F59D4205D303FA79
:1001700002F5491B04FA02F52844151EA2F10102FA
:10018000F1DC30BD064C074D06E0E06840F00103AD
:1001900094E8070098471034AC42F6D3FFF7B2FF5B
:1001A000D81B0008F81B0008FEE7704701490860EB
:1001B000704700BF1404014010B582791A492AB370
:1001C00002680B6823EA02020A6002684B6823EAAD
:1001D00002024A60027903680A43146823431360E9
:1001E00002688B6823EA02028A600268CB6823EA0D
:1001F0000202CA604279102A0FD102688B681A4342
:100200008A600068CA681043C86010BD027900683F
:1002100011430A6822EA000003E0114300680A68FB
:100220001043086010BD00BF00040140F0B5CB785A
:1002300003F00F021B0644BF8B781A430B881C0681
:100240001CD00368012400254FF00F0C202D13D083
:100250000F883C420DD00CFA05F602FA05F7B343BD
:100260003B43CF78482F03D0282F08BF446100E0DC
:10027000046104356400E9E703600B88B3F5807F0F
:100280001CD343684FF4807400254FF00F0C202DD1
:1002900013D00F883C420DD00CFA05F602FA05F790
:1002A000B3433B43CF78482F03D0282F08BF446186
:1002B00000E0046104356400E9E74360F0BD806854
:1002C000084018BF012070471023002A08BF1423DC
:1002D000C1507047FEE7000010B590B001AC204659
:1002E00000F0C8FE0A480E900A480D900A480C908B
:1002F0000A4808900A4806900A4803900A48029063
:100300000A480190204600F085FE10B010BD00BFE5
:10031000310300084912000855120008D9110008DD
:10032000180000205C0000200800002010000020C1
:100330001CB50A486C46019040F20120ADF800005F
:1003400002208DF80300204600F0AAFFB820ADF887
:100350000400204600F0D0FF1CBD00BF9800400004
:10036000FEE7704710B5114B1C6804F4E064A4F577
:100370004074B4F5A06F31BF230A0D4C1C600423F8
:100380009940C3F104030F2424FA03F31A401143E4
:10039000084A0901831883F8001300F01F010123A4
:1003A000401103FA01F142F8201010BD0CED00E0FD
:1003B0000007FA0500E100E002FB03F00024400220
:1003C000B4EBD02F704701BAF960B5F8070000040C
:1003D00002BA20463A6100F0A1B8416800EB410042
:1003E0000321A0F8B8430020704701256178E38815
:1003F00002EB00120139704751F82020029248F6B2
:100400008F72029B1A400292029A70470A68104348
:1004100008607047D9F80000032100EBC50009EB24
:10042000400070470091009942F8201018BD00EB81
:100430004100B0F8BC236FF39F22704752F8203080
:10044000009348F68F73009C23400093009B7047F5
:10045000704700002E4900F003000A6822F44002B1
:1004600042EA8050086070470149FFF7CFBF00BFE4
:100470001C1002400149FFF7C9BF00BF181002401D
:1004800080B500F02DF8044904A20968C1F30311F6
:10049000515CC84080BD00BF041002400000000055
:1004A00000000000010203040607080970B5184E99
:1004B0000C460546FFF7E4FF3DB13168074AC1F33A
:1004C0000221515C20FA01F1296034B13168034AFC
:1004D000C1F3C221515CC840206070BDAC1B000854
:1004E0000B49086800F003020A48022A08D10A688A
:1004F0000B68C2F383420232DB0302D40648504346
:10050000704709685043C1F34041C840704700BF7D
:100510000410024000127A0000093D0080B5501816
:10052000FA494968814224BF002080BD002005218E
:100530002122002300F0F2F9012080BD2DE9FE43C5
:10054000044608780D46A0F11A01102917D8DFE8F3
:1005500011F030001100C801C8011100C801C80124
:10056000C801C8013D00C8014700C801C8016600B4
:10057000C8018900DFF8800300244480B8E1002826
:1005800000F0BD80032800F0C980122800F0D08060
:100590002F2800F0DD805A2840F0A381D6480021A2
:1005A000D6A2082910D0545C4318013183F8344096
:1005B000F7E7D1480021D3A2082905D0545C43189D
:1005C000013183F83440F7E70821F4E0CA4D0020F8
:1005D00000210C296BD06A18013182F83400F8E749
:1005E000CB48CA4D4368291D05F1080220469847AB
:1005F000002840F01E81C04808214180D5E9011241
:10060000013912BA82630A0A80F8371080F836205E
:100610000A0C090E80F8352080F83410CCE0B64E74
:100620003078002800F0DB80B848D0E90212006979
:100630004FF40074B2FBF1F2B0F5007F06F134051F
:10064000748038BF0446B4FBF1F1E0B28BB2B0491C
:100650000F692946B847002800F0EF8000200421E8
:10066000112241E1DFF8909299F80000002800F093
:10067000D680A64D09F134082F69B7F5007F28BF51
:100680004FF4007788BF00BFD5E90201B7FBF0F255
:1006900093B29F4A5669B1FBF0F220464146B047FB
:1006A000002800F0DE800020042103221CE198488D
:1006B000436801A902AA20469847002840F0B98063
:1006C00002200C2185F83C0008206980019985F8FA
:1006D000370002980139020A85F83F00000C85F8BE
:1006E0003B1085F83D00080A85F83E2085F83A0061
:1006F000080C85F83900080E85F838005CE07E4D5E
:10070000E868002840F0ED808148816820468847ED
:10071000002840F08E8000246C80E9E076480021BB
:100720000022122A28D08318013283F83410F8E707
:100730006878C00742D1764904EBC400896901EBAF
:10074000800001794A1D29798A4238BF114637E075
:10075000687880073FD4D5F8020001BA6B48C160C1
:10076000B5F80720120412BA02612046FFF7D6FE40
:10077000002840F0BC80FDE60C2180F83B10702181
:1007800080F8341061490B784A789A420FD002EB16
:10079000420301320B441C7DB3F81530A0F8403001
:1007A000D3B280F83640043B18BF13464B7029790A
:1007B000122928BF12214180002499E055A0072169
:1007C0004D4A518034320029F6D010F8013B0139EE
:1007D00002F8013BF7E700200521242284E096F986
:1007E000100000287DD54A4881682046884700BB14
:1007F000D5F80200454FFFF7E6FD002877D102202B
:100800003B693070D7E9021000FB01F203FB01F0F5
:10081000F368C7E9032083423FF40AAF61E099F926
:100820001000B0F1FF3F5CDD394F2046B9688847C2
:1008300070B3002002213A2256E0012029462246C8
:1008400000F080FF3148D0E90312121B2144C0E9B7
:100850000312F06AA0EB0400F062ADD10320307007
:10086000AAE7D5E90301CA1B3844C5E90302D9F850
:100870002C00A0EB0700C9F82C0011D0B2F5007FC6
:1008800028BF4FF400724146012000F0D3FD93E7EA
:10089000F9682046884740B100200221272223E042
:1008A0000020002400F080FC22E0D5F80200174F61
:1008B000FFF789FDD8B907F1080207CA414342434F
:1008C000D9F80C00C7E9031290420AD1012009F8B7
:1008D000340BB2F5007F28BF4FF400720120494667
:1008E000D3E7002005212022002300F017F801247F
:1008F0002046BDE8FE8300BF1C0900200006000062
:10090000000000000000000000000000F8000020CF
:10091000400000200000000300808300B0B50748BD
:10092000047804EB440505442975611C6A75AB75B0
:10093000CAB2043A18BF0A460270B0BDF8000020DF
:100940000020704700207047002070474FF4C830E7
:1009500008604FF4007010600020704710B5FFF77A
:100960002BFD08D10F4800EB4220DA011AB108C86C
:10097000013A08C1FAE7002010BD00BF10B5FFF72B
:100980001BFD0BD1064800EAC210064A02EB8000AC
:10099000DA011AB108C9013A08C0FAE7002010BD0F
:1009A00080FFFF3F1C010020704700F081BF000066
:1009B00081B03148314A016841F00101016041686C
:1009C00011402F4A4160016811400160016821F423
:1009D00080210160416821F4FE0141604FF41F0154
:1009E0008160016841F4803101600021009100992B
:1009F000090B042905D80168890302D40099013143
:100A0000F4E70168890330D51E4902230A6842F0E1
:100A100010020A600A6863F302020A600422416855
:100A200021F0F0014160416821F46051416041686A
:100A300062F30A2107224160416841F4803141603C
:100A4000416862F395414160016841F08071016045
:100A500001688901FCD54168022262F3010141600D
:100A6000416801F00C010829FAD107484FF00061F4
:100A7000016001B0704700BF001002400000FFF8A5
:100A8000FFFFF6FE0020024008ED00E0BCB5044682
:100A9000C0680D464EF6F3110840A97A084329892B
:100AA0000843A98808434CF6FF71E06020690840BC
:100AB000E98808434FF6FF41206160690840A98931
:100AC000084360611048844219BF01A8002101A9B0
:100AD0000020FFF7EBFC019919206FF063034843F6
:100AE00029688900B0FBF1F06421B0FBF1F202FB50
:100AF0000300322303EB0010B0FBF1F000F00F0015
:100B000040EA0210A060BCBD00380140C16841F459
:100B10000051C16070470068084018BF012070474D
:100B2000426861F30802426070470000F8B5134D57
:100B3000EF4E2868000458BFF8BD28682F4620F4FF
:100B40000040286057F8440900F00F0457F82400CB
:100B5000000406D5204600F04DFCD6F89C10204637
:100B6000884757F824000006E3D5204600F052FCE1
:100B7000D6F8A01020468847DBE700BF445C004061
:100B80007FB5604D686800043CD4686840057AD53C
:100B90006868F14E4FF6F8716C4620F4806068602A
:100BA000002030604FF48070B0804020A6F84A00EA
:100BB00070832869884328611820ADF804004FF03D
:100BC00000700090708BADF80600204600F068FBC6
:100BD0005820ADF8040003208DF80300B6F84A0051
:100BE000ADF80600204600F087FBD6F8A40000B15F
:100BF00080470024E0B202283DD8014600F0C0FC46
:100C00000134F7E7A5F1400668680004BDD56868BF
:100C100010F00F0414D056F82400000405D5204627
:100C200000F0E8FB204600F099F956F82400000691
:100C3000EAD5204600F0EEFB204600F05BF9E3E742
:100C400000200221022200F063FC6868C00605D47F
:100C5000002000F0DFFB00F0B7F8D5E755F8404C76
:100C6000002000F0C7FB200502D400F011F9CBE70B
:100C700000F092FCC8E7E86820F07F00E860E868D0
:100C800040F08000E8606868C00408D5FFF790FE77
:100C90004FF41C402860686820F4805068606868E1
:100CA00000052DD500216846082907D005EB8102F3
:100CB00052F8402C20F811200131F5E7296841F461
:100CC00080612960296841F001012960296821F0CB
:100CD0000101296069684905FCD50021082907D070
:100CE00030F8112005EB8103013143F8402CF5E782
:100CF000286840F008002860686820F40060686098
:100D00007FBD00BF405C00404FF48020FFF74EBA2B
:100D10002DE9F04121B3D54F05460C46B8897E8BAD
:100D2000884206D9B4FBF6F000FB164008B9012052
:100D30007876A74880460020A64225D92946224633
:100D400000F036FDD8F800000321022208EB400035
:100D5000A0F8B443002000F0DBFB97F906100DE08B
:100D60009B48016800EB41000021A0F8B41300206B
:100D7000032100F0E7FBF74890F906100120B1F1DC
:100D8000FF3FC8BF03201AE02946324600F010FD9D
:100D9000788BD8F80010022208EB4101A1F8B403C7
:100DA0000020032100F0B4FB788B211A2844C7E906
:100DB000040170180138B0FBF6F038760120E549DF
:100DC0000870BDE8F08100BFB0B5E24D2878032877
:100DD0001DD0012824D1287E18B3D5E904106C8BCE
:100DE000A04238BF04462246002000F0E1FC18482B
:100DF0000222FFF7F2FA00F08BFBD5E90401204450
:100E0000091BC5E90401287E01382876B0BDE879C0
:100E1000052805D10E49287A0A6860F306020A609F
:100E2000B0BD687E38B10A480024FFF7D6FA00F05A
:100E300089FB6C76B0BDD5F8980000B180470420DE
:100E40000221032228700020BDE8B04000F060BB02
:100E50004C5C004010B589B1BE4A0224C2E91001C1
:100E6000B2F84A0001440139B1FBF0F0022182F8E6
:100E700048000020032200F04BFB00E00424F1486E
:100E80000221032204700020BDE8104000F040BBA6
:100E9000B0B5EC4D2878022818BFB0BD95F84800D1
:100EA000D8B1D5E91010B5F84A40A04238BF044681
:100EB0002246002000F070FAD5E9100195F848208C
:100EC000013A091B204485F848201206C5E91001A3
:100ED00007D0BDE8B040FFF7BDBFD5F8940000B122
:100EE000804700200021BDE8B040FFF711BF00BFE0
:100EF000500B0020F8B50446E84800EB04173E46C6
:100F000016F8181FF9B1788BD7E90415854288BF08
:100F1000054620462A4600F04BFCF648016801EBE6
:100F2000C40100EB41000321A0F8B453204600F0B7
:100F300009FBD7E904012844491BC7E904013078BB
:100F400001383070F8BDD0F8A0100029FAD0204642
:100F5000BDE8F840084700BF500B00202DE9F843DA
:100F6000DFF84488044608EB00173D4615F8480FA3
:100F700010B3E0483E46016801EBC401FFF757FAA1
:100F800046F84C2FA2B1B94659F8401F81B120460E
:100F900000F002FA786C3168401A7864D9F80000E1
:100FA0000844C9F80000287801382870000603D0EA
:100FB0002046032100F09AFAD8F89C1009B128784D
:100FC00008B1BDE8F8832046BDE8F843084700BFF4
:100FD000505C0040E0B50020FFF73CFA4FF4000001
:100FE000FFF742FA01208DF806004FF480200090B0
:100FF0004FF40060ADF804006846FFF7DDF81420F8
:1010000002210022FFF7AEF92A2001210022FFF77A
:10101000A9F98CBDB0B5D04D90E81E0005F1700760
:101020001EC7016900F1280405F19807C5F8801072
:101030004169C5F88410C169C5F88C10016AC5F80A
:1010400090108169C5F88810416A806BC5F89410CA
:101050001ECCC5F8A8001EC7FFF7BCFF044800213E
:101060000160BDE8B04000F07BB900BF500B00202C
:10107000005D004080B514302821FFF762F880BD84
:1010800080B585490878C21E022A01D2002007E0F7
:10109000022809D1487C1331FFF750FA20B1012012
:1010A000BDE8804000F080B880BD00BF10B57A4C2C
:1010B000207801281CD0002848D1D4E90110E2682A
:1010C000C4E90A02E94A607CD26D1F2A08D1224A8B
:1010D000914205D1012803D8A17C09B1112912D36D
:1010E000052120220023FFF719FC0220607010BDAB
:1010F000607C04F11301FFF721FA38B30120BDE849
:10110000104000F051B804F11301FFF717FA18B1BD
:10111000BDE8104000F02CB8207840F0040004280E
:1011200014D1608898B10021E26884F8301004215D
:101130002170E16A824288BF0246881A04F13401B4
:10114000E0620120BDE8104000F0FCBA10BD0020B4
:10115000D5E700BF500B0020555342434E494FF492
:1011600080701F2221F8040B012000F063B900BF3A
:1011700010B5494CE06838B1207C6178084303D150
:101180000120012100F0B2F90120012100F0DAF97B
:101190006078022818BF10BD211D01201F22BDE864
:1011A000104000F047B900BF10B53B4C0D2284F849
:1011B0003000002021462070064841F8240F01200D
:1011C00000F0C0FA211D01201F22BDE8104000F0F0
:1011D00031B900BF5553425380B54378C188428826
:1011E000FF2B11D0FE2B11D182B901290ED190F91C
:1011F0000000B0F1FF3F09DC0E4800210170012121
:10120000BDE88040FFF784BD114306D000200121D6
:101210000122BDE8804000F07BB990F90000002871
:10122000F4D400200021FFF773FDBDE88040FFF7F4
:1012300095BF00BFFC0B0020F048007A00B170475A
:1012400000F010B8500B0020012818BF7047012093
:10125000FFF716BF012818BF70470120FFF726BF10
:10126000FFF77CBF10B50C4C6078022806D1012036
:10127000022100F067F90020607007E0DF4991F972
:101280000A10B1F1FF3F01DC012800D110BD01209F
:10129000BDE81040FFF788BF1C090020500B00205C
:1012A000B0B504460078D54AFFF79FF853832B4B1F
:1012B000C9B2CA00032938BF23FA02F5E9B200F027
:1012C00053F9A178207811B100F0D2F801E000F0D4
:1012D00081F8C94BA2881D682078E17822F00102CC
:1012E00005EBC00403EB4403A3F8B023BDE8B04012
:1012F00000F028B9505C0040B0B504460078BF4A01
:10130000FFF773F8A2F84A30144BC9B2CA00032998
:1013100038BF23FA02F5E9B200F026F9A178207867
:1013200011B100F0A5F801E000F054F8B24AA1882C
:101330001368207821F0010103EBC00302EB4302A4
:10134000A2F8B813E18800F0A3F82078E178BDE8AE
:10135000B04000F0CBB800BF500B002002000300EB
:101360000C48016821F002010160016841F00101AF
:101370000160016821F001010160016821F47F41F1
:101380000160416821F47F414160016841F41C41E2
:1013900001607047405C004010B50C4B0C4CE358AA
:1013A00003EBC00004EB4000008904EB4003481C41
:1013B000510829B110CB013920F8014C0230F8E76F
:1013C000D1071CBF196800F8011C10BD50FCFFFFBD
:1013D0000060004081B0DA494DF808EDFFF70CF8E5
:1013E0005DF808EB22F480720092009A41F8202008
:1013F00001B0704781B0D2494DF808EDFEF7FCFF0F
:101400005DF808EB22F400420092009A41F8202097
:1014100001B0704781B0CA494DF808EDFEF7ECFF06
:101420005DF808EB22F080020092009A41F820203B
:1014300001B0704710B50446DB4800EB0410C0E96A
:101440001012B0F84A105318013BB3FBF1F391426C
:1014500080F84830204688BF114600F019F8204631
:101460000321BDE8104000F041B800BF500B002040
:1014700081B0B3494DF808EDFEF7BEFF5DF808EB0B
:1014800042F480720092009A41F8202001B0704727
:1014900018B50022ADF80220C44A3F2913680FD3C3
:1014A0004C09C906ADF8024004D1BDF8021001395B
:1014B000ADF80210BDF802100B4C44EA81210CE09B
:1014C0004C08C907ADF8024004D0BDF80210013144
:1014D000ADF80210BDF80210890203EBC00002EB68
:1014E0004000A0F8BC1318BD0080FFFF18B5944A57
:1014F00001F0030152F8203000934BF68F73009CEB
:1015000023400093009B83EA0131FEF78BBF00BFAD
:10151000B8B58B4B02F0030201F0030153F82040F1
:1015200000944BF6BF74009D2C400094009C84EA0C
:1015300002320092009A82EA01110091009943F868
:101540002010B8BD18B57E4A01F0030152F82030D2
:10155000009348F6BF73009C23400093009B83EAEE
:101560000111FEF75FBF00BF18B5754AFEF766FFB1
:1015700023F4C0630093009B43EA4121FEF752BF6E
:1015800018B56F4AFEF75AFF23F00F030093009B34
:101590001943FEF747BF00BFE0B584480168FEF776
:1015A00046FF42B369460020FFF7F6FE7E489DF8ED
:1015B00001209DF80010C271BDF802208171C1F3B5
:1015C000411102290281019AC0F80A2005D001299F
:1015D00006D059B900F014F88CBDD0F8901001E095
:1015E000D0F88C1039B1063088478CBD002001211D
:1015F0000122FFF78DFF8CBD505C0040500B002096
:10160000BCB5694C0125E0790B2800F28C80DFE83D
:1016100000F008068A8A8A232E0638470606002527
:1016200081E0A0790025ADF8065000F01F000228E7
:1016300046D0012854D0002875D1607810F0600F92
:101640004ED081064FF0030158BF0121400658BF1C
:1016500002218DF8061043E0207A00257E2862D80A
:10166000607A00285FD1A079C006D8D125E0607AE1
:10167000032839D002284CD0012843D1A089226FF9
:1016800049E0A079C006CAD1201D01210125FFF73C
:101690003FFBD4F884000068002844D0804741E034
:1016A0006179207A8842BAD8A179C906B7D1207168
:1016B000D4F88400406900B18047002000212FE069
:1016C000A17A1F4A01F00F00090652F8200031D418
:1016D00000F44050B0F5805F02D101208DF8060083
:1016E0000DF1060002211BE0217A03290AD8A26F1E
:1016F00052F8310002EBC101A28909798A4238BF50
:1017000011460DE00020012101220025FFF700FF16
:1017100009E0A089626F1179884238BF01461068DC
:10172000FFF7F6FA012525B9D4F8881009B1A01DF4
:101730008847BCBD00F030001028CED0D0E700BFF5
:10174000005C00402DE9F8430546174814468846DA
:1017500000EB05161548778B8146284697420DD930
:101760004146224600F024F8FEF754FEA0F8B443A8
:101770002846FFF7E7FE0020002111E041463A46E7
:1017800000F016F8FEF746FEA0F8B4732846FFF7FF
:10179000D9FE08EB0700E11B3061601EB0FBF7F0DB
:1017A00071613076BDE8F883500B0020505C00403A
:1017B00010B5094B094C01325208E35803EBC00045
:1017C00034F8100004EB400022B131F8023B013A3A
:1017D00008C0F9E710BD00BF50FCFFFF00600040EB
:1017E000FEE70000E0B50420FEF744FE0348019048
:1017F000084801A9FEF71AFD8CBD00BF01000328AF
:1018000080B504480121FEF75AFD002818BF0120C9
:1018100080BD00BF00080140E0B50820FEF72AFEA9
:1018200003480190064801A9FEF700FD8CBD00BFEA
:1018300004000380024804210022FEF745BD00BFDA
:10184000000C01400248016881F00401016070470A
:101850000C0C014010B586B044F20400FEF70AFEFD
:101860000E481F4C0590A4F5405005A9FEF7DEFC7C
:101870004FF4E131002001910821ADF81000ADF8DE
:101880000C00029020468DF80E1001A9FFF7FEF81B
:101890002046FFF73BF906B010BD00BF00020388E9
:1018A00006490A6810440A688242FCD3704700BFA8
:1018B0000248016801310160704700BF1801002033
:1018C000B0B5074D0446C1B22846FFF729F92846AE
:1018D0008021FFF720F90028F9D02046B0BD00BFD5
:1018E0000038014000F068F8FFF796FFFFF77AFF35
:1018F000FFF7B0FF154C0EA0A04715A0A0471AA0F7
:10190000A04720A0A0472448016824A000F072F856
:1019100026A0A047FEF7E0FCFFF772FF10B1FFF72B
:1019200089FFF9E76420FFF7BBFFFFF78BFFF3E7C1
:101930000D0A57654163742053747564696F2043C1
:101940006F726520426F6172640D0000891B000890
:10195000776561637473747564696F2E74616F6207
:10196000616F2E636F6D0D007765616374737475BD
:1019700064696F2E616C69657870726573732E632C
:101980006F6D0D00777777772E77656163742D74AF
:10199000632E636E0D0A0D000400002053797374EA
:1019A000656D436C6B3A25640D0A00004D5343206E
:1019B000546573740D0000000B484FF47A71006891
:1019C000B0FBF1F00138B0F1807F00D3FEE70749AA
:1019D000F02248600648027000228A6007220A60EE
:1019E00050210170704700BF0400002010E000E0AB
:1019F00023ED00E00FB4054B10B503A9044A02988B
:101A000000F018F810BC5DF814FB0000C1180008C5
:101A10000000002002E008C8121F08C1002AFAD105
:101A200070477047002001E001C1121F002AFBD15E
:101A3000704700002DE9FF4F89B09B460446002502
:101A400006E025280BD05A460B999047641C6D1C64
:101A500020780028F5D10DB02846BDE8F08F00278A
:101A6000B8460122474900E0074314F8013F203BF4
:101A700002FA03F00842F7D120782E2819D114F881
:101A8000010F47F004072A280ED06FF02F022078AC
:101A9000A0F1300109290CD808EB880102EB4101C3
:101AA00000EB0108641CF2E70A98641C50F8048BF0
:101AB0000A9020780028CED0642808D0692806D063
:101AC00075281ED05A460B9990476D1C58E00A990C
:101AD0004FF00A0901C90A91002802DA40422D217B
:101AE00002E0390504D52B218DF82010012103E0F7
:101AF000F90704D02021F7E78A4608AE0DE000215F
:101B0000FAE70A994FF00A0901C90A91F7E749462D
:101B1000FEF722FB303106F8011D0028F7D1ADEBAE
:101B2000060000F12009780701D44FF00108C845EC
:101B300002DDA8EB090000E000208046002706E057
:101B400008A85A46C05D0B9990476D1C7F1C5745ED
:101B5000F6DB04E030205A460B9990476D1CB8F133
:101B60000001A8F10108F5DC05E016F8010B5A4662
:101B70000B9990476D1CB9F10001A9F10109F4DC42
:101B8000641C65E70928010010B5044601E0FFF771
:101B900097FE14F8010B04490028F8D1BDE8104065
:101BA0000A20FFF78DBE00000000002000000000AA
:101BB00001020304008002021F00000047656568FF
:101BC0007920202053746F72616765206469736B9C
:101BD00020202020312E3030F81B0008000000208B
:101BE000F8000000141A0008F01C0008F80000209B
:101BF000080F0000241A00080000000000A24A0498
:101C00007C000020200000009C000020120000004A
:101C100000000000000000000000000000000000C4
:101C20000000000061120008000000000000000039
:101C30000000000039120008490900084D09000899
:101C400041090008450900085D0900087D090008F0
:101C5000B41B0008AE00002004000000E6000020D5
:101C60000C000000B20000201A000000CC00002090
:101C70001A00000009022000010101C0320904001D
:101C80000002080650050705810240000007050113
:101C90000240000012010002000000404B31090226
:101CA000000201020301040309041A034100500069
:101CB0004D003300320020004800530020004D004A
:101CC000530043001A033000300030003000300071
:101CD00030003000300030003000300030000C03A5
:101CE0004700650065006800790000000000000002
:04000005080000FDF2
:00000001FF
