:020000040800F2
:100000005007002011010008610800085D08000881
:100010005F080008B10700088F0B0008000000000F
:10002000000000000000000000000000110A0008AD
:10003000B30700080000000059090008130A00086F
:100040002B0100082B0100082B0100082B010008E0
:100050002B0100082B0100082B0100082B010008D0
:100060002B0100082B0100082B0100082B010008C0
:100070002B0100082B0100082B0100082B010008B0
:100080002B0100082B0100082B0100082B010008A0
:100090002B0100082B0100082B0100082B01000890
:1000A0002B0100082B0100082B0100082B01000880
:1000B0002B0100082B0100082B0100082B01000870
:1000C0002B0100082B0100082B0100082B01000860
:1000D0002B0100082B0100082B0100082B01000850
:1000E0002B0100082B0100082B0100082B01000840
:1000F0002B0100082B0100082B010008DFF80CD0B1
:1001000000F034FB00480047910C00085007002025
:100110000648804706480047FEE7FEE7FEE7FEE7A1
:10012000FEE7FEE7FEE7FEE7FEE7FEE7190A000846
:10013000FD0000082DE9FE4F804681EA0300C00F54
:100140000C46009021F0004123F00045B8EB02007E
:10015000A94105D24046214690461C460B46024620
:1001600023F00040104347D0270DC7F30A00C3F324
:100170000A510290401A019040286BDAC3F3130031
:1001800040F4801B0098924620B10023D2EB030A72
:1001900063EB0B0B01985946C0F14002504600F04A
:1001A00090F906460D4650465946019A00F098F9D6
:1001B00010EB08006141002487EA115284EAE773DA
:1001C0001A4340D0009A62B3019A012A4FEA0752BB
:1001D00015DC001B61EB02014FF0004202EA0752FE
:1001E000CDE90042001C41F5801132462B4600F05B
:1001F000CFF903B0BDE8F08F40462146F9E7001B78
:1002000061EB0201001C41F5801300185B412018CE
:10021000A2F5001747EB030140EAD570B6196D410E
:1002200011E06D084FEA360645EAC0754FEA0752FD
:10023000001B61EB0201001C41F5801149084FEAE7
:1002400030000019514132462B4603B0BDE8F04F53
:1002500000F08FB90098012240000023D0EB020289
:1002600063EBE073009821464FEAE074B8EB0000BE
:1002700061EB0401E9E783F000435BE781F00041B3
:1002800058E72DE9FE4F81EA030404F0004421F011
:10029000004100944FF0000B23F0004350EA0104AA
:1002A0005ED052EA03045BD0C3F30A54C1F30A558B
:1002B0002C44A4F2F3340194A0FB0254C1F31301C3
:1002C00041F48011C3F3130343F4801301FB024490
:1002D00000FB034E840A970A44EA815447EA835795
:1002E000A4FB076802958D0A05FB07854FEA932C4E
:1002F00004FB0C542705029D4FEA065847EA1637BF
:10030000B5EB08056EEB070C870E920E47EA8117D6
:1003100042EA8312A7FB0201B6EB0B0164EB000477
:100320002B0D43EA0C335E1844EB1C50DA46514661
:10033000E7FB0201C5F313044FEA0B3343EA1453FE
:100340004FEA0432019C43EA0603A4F10C04029430
:10035000009CCDE900B400F01BF903B0BDE8F08FBC
:1003600000200146F9E7002801DBC0F10040002928
:1003700001DBC1F10041814201D80120704700201A
:100380007047002801DBC0F10040002901DBC1F10A
:100390000041814201D201207047002070470028AF
:1003A00001DBC0F10040002901DBC1F100418142C5
:1003B00001D30120704700207047002801DBC0F105
:1003C0000040002901DBC1F10041814201D9012037
:1003D00070470020704700F0004230F000400AD023
:1003E000C10D01F56071C0F3160042EA0151C20867
:1003F00040071143704700200146704701F0004359
:1004000030B421F0004150EA010206D00A0DA2F5F5
:100410006072C1F31301002A02DC30BC0020704777
:10042000440F44EAC104C100E01830BC00EBC250E4
:1004300000F068B830B50B460146002020220124A8
:1004400009E021FA02F59D4205D303FA02F5491BA2
:1004500004FA02F52844151EA2F10102F1DC30BDB8
:100460002DE9F05F0546002092469B4688460646E9
:10047000814640241BE0284641464746224600F07C
:1004800087F953465A46C01A914110D3114618466F
:10049000224600F016F82D1A67EB01084F46224657
:1004A0000120002100F00DF817EB00094E41201E3D
:1004B000A4F10104DFDC484631462A464346BDE844
:1004C000F09F202A04DB203A00FA02F10020704756
:1004D0009140C2F1200320FA03F319439040704782
:1004E000202A06DBCB17203A41FA02F043EAE073F8
:1004F00006E041FA02F3D040C2F1200291400843E5
:10050000194670470029A8BF7047401C490008BF22
:1005100020F00100704710B4B0FA80FC00FA0CF033
:1005200050EA010404BF10BC704749B1CCF120046B
:1005300021FA04F411FA0CF118BF012121430843F8
:10054000A3EB0C01CB1D4FEA00614FEA102042BF24
:10055000002010BC704700EBC35010440029A4BF1A
:1005600010BC7047401C490008BF20F0010010BCBF
:10057000704710B5141E73F1000408DA401C41F1F5
:10058000000192185B411A4301D120F0010010BD17
:100590002DE9F04D92469B4611B1B1FA81F202E08D
:1005A000B0FA80F220329046FFF78BFF04460F46E8
:1005B00040EA0A0041EA0B0153465A46084313D069
:1005C000114653EA010019D0C8F14002504600F02C
:1005D000DFF805460E46504659464246FFF771FF82
:1005E000084305D0012004E020463946BDE8F08DDF
:1005F0000020054346EAE0762C4337430A9863051A
:10060000E40AA0EB08000022FD0A44EA47540A303D
:1006100002D500200146E9E7010510196941DDE92D
:10062000084500196941BDE8F04DA2E72DE9F04DFC
:1006300081EA030404F0004B21F0004514464FF01A
:10064000000A23F0004150EA050220D054EA0102DA
:100650001DD0C5F30A570246C5F31303C1F31300B7
:10066000C1F30A5640F4801543F48013A7EB060843
:10067000101BD64608F2FD3873EB050002D308F1D3
:10068000010801E092185B41B8F1000F03DA002085
:100690000146BDE8F08D00204FF4801106468446E7
:1006A0000EE0171B73EB050705D3121B63EB050365
:1006B00006434CEA010C49084FEA300092185B41AE
:1006C00050EA0107EDD152EA030012D082EA040099
:1006D00083EA0501084305D0101BAB4106D2012275
:1006E000002306E000224FF0004302E06FF0010219
:1006F00053101AEB06004CEB085110EB0A0041EBCB
:100700000B01BDE8F04DFFF734BFC1F30A52C1F34E
:10071000130140F2FF3341F480119A4202DA0020C3
:100720000146704740F233439A42A2F2334202DC60
:10073000524200F02DB8FFF7C4BE000030B5041ED1
:1007400071F1000404DB4FF00044404264EB01010E
:10075000141E73F1000405DB1C464FF000435242A7
:1007600063EB0403994208BF904230BD064C074D2D
:1007700006E0E06840F0010394E807009847103471
:10078000AC42F6D3FFF7BEFC8C240008AC24000872
:10079000202A04DB203A21FA02F00021704721FAD6
:1007A00002F3D040C2F1200291400843194670473D
:1007B000FEE77047F0B5CB7803F00F021B0644BF8D
:1007C0008B781A430B881C061CD003680124002573
:1007D0004FF00F0C202D13D00F883C420DD00CFA97
:1007E00005F602FA05F7B3433B43CF78482F03D011
:1007F000282F08BF446100E0046104356400E9E784
:1008000003600B88B3F5807F1CD343684FF480747A
:1008100000254FF00F0C202D13D00F883C420DD037
:100820000CFA05F602FA05F7B3433B43CF78482F9D
:1008300003D0282F08BF446100E004610435640040
:10084000E9E74360F0BD8068084018BF01207047A9
:100850001023002A08BF1423C1507047FEE7FEE7AB
:10086000704798F8001049F82100481C88F80000EB
:10087000D8F80400FFF7AFBD98F800004FF07E51A4
:10088000461CD8F8040088F8006000F0BDBE0A6875
:1008900010430860704730460021C8F80460FFF735
:1008A00062BD28462146FFF77ABD30460021C8F8D0
:1008B0000460FFF774BD024630460B4600F088BE68
:1008C0004FF07E5100F0A0BE88F80000DBF8000079
:1008D00080F00046704730464FF07E51C8F8046003
:1008E000FFF76BBD30462946FFF759BDF0B24FF018
:1008F0007E5149F82070284600F086BE98F8001016
:1009000049F82100D8F804004E1C4FF07E5188F8B9
:10091000006000F079BEC8F80400FFF740BD024651
:1009200028460B4600F054BEF0B259F82000FFF7FD
:1009300052BD22462B46FFF7FDBB59F82000FFF7BA
:100940004ABD98F800004FF07E51471CD8F80400CB
:1009500088F8007000F058BE704700000149FFF7AA
:1009600096BF00BF141002400149FFF790BF00BFBF
:100970001810024080B500F02DF8044904A209685F
:10098000C1F30311515CC84080BD00BF0410024098
:10099000000000000000000001020304060708092F
:1009A00070B5184E0C460546FFF7E4FF3DB13168BF
:1009B000074AC1F30221515C20FA01F1296034B1E8
:1009C0003168034AC1F3C221515CC840206070BD48
:1009D0003C2400080B49086800F003020A48022A78
:1009E00008D10A680B68C2F383420232DB0302D4E7
:1009F00006485043704709685043C1F34041C8401E
:100A0000704700BF0410024000127A0000093D0048
:100A1000704700F023B9000081B03148314A0168C5
:100A200041F001010160416811402F4A41600168B5
:100A300011400160016821F480210160416821F4C6
:100A4000FE0141604FF41F018160016841F4803173
:100A50000160002100910099090B042905D8016863
:100A6000890302D400990131F4E70168890330D584
:100A70001E4903230A6842F010020A600A6863F301
:100A800002020A600422416821F0F00141604168DD
:100A900021F460514160416862F30A210A224160F9
:100AA000416841F480314160416862F395414160A1
:100AB000016841F08071016001688901FCD54168DD
:100AC000022262F301014160416801F00C01082932
:100AD000FAD107484FF00061016001B0704700BFD4
:100AE000001002400000FFF8FFFFF6FE0020024069
:100AF00008ED00E0BCB50446C0680D464EF6F311A3
:100B00000840A97A084329890843A98808434CF674
:100B1000FF71E06020690840E98808434FF6FF4113
:100B2000206160690840A989084360615748844290
:100B300019BF01A8002101A90020FFF731FF019989
:100B400019206FF06303484329688900B0FBF1F076
:100B50006421B0FBF1F202FB0300322303EB00102F
:100B6000B0FBF1F000F00F0040EA0210A060BCBD45
:100B7000C16841F40051C16070470068084018BF67
:100B800001207047426861F3080242607047FEE747
:100B9000E0B50420FFF7E8FE03480190084801A9EA
:100BA000FFF708FE8CBD00BF0100032880B5044894
:100BB0000121FFF748FE002818BF012080BD00BFBB
:100BC00000080140E0B50820FFF7CEFE0348019081
:100BD000064801A9FFF7EEFD8CBD00BF04000380AD
:100BE000024804210022FFF733BE00BF000C014081
:100BF0000248016881F00401016070470C0C01405B
:100C000010B586B044F20400FFF7AEFE0E481F4C4C
:100C10000590A4F5405005A9FFF7CCFD4FF4E13154
:100C2000002001910821ADF81000ADF80C000290F1
:100C300020468DF80E1001A9FFF75CFF2046FFF754
:100C400097FF06B010BD00BF0002038806490A687E
:100C500010440A688242FCD3704700BF0248016812
:100C600001310160704700BFBC010020B0B5074DE5
:100C70000446C1B22846FFF785FF28468021FFF7CA
:100C80007CFF0028F9D02046B0BD00BF00380140ED
:100C900000F080FCFFF796FFFFF77AFFFFF7B0FF49
:100CA000DFF81CA80FF2FC70D0470FF61800D047F1
:100CB0000FF62800D0470FF64000D047DFF84C0869
:100CC00001680FF64C0000F083FC0FF65400D0478B
:100CD0000820FFF743FEDE48016841F00061016033
:100CE0000FF6480000F074FCDFF84888D94CDFF8B4
:100CF00050980027002598F80060FFF7D2FD20B932
:100D0000FFF7F4FD05460136F7E7DFF830B80020BD
:100D1000D14CD24D7146FFF7D7FD8E46FFF7C5FD8A
:100D200050B9304601F088FAFFF79BFDFFF701FE4E
:100D3000FFF764FB0646F1E7002001F07DFA98F822
:100D40000010DBF80060C44CC54D49F82100481C78
:100D500088F80000FFF79FFD50B9304601F06CFAAB
:100D6000FFF77FFDFFF7E5FDFFF748FB0646F1E7DC
:100D7000B84CDFF814580026002088F8006021469F
:100D8000FFF7C9FD30B9FFF7CFFDFFF7C8FDFFF74B
:100D900073FDF4E7DFF8AC472046D0472046D04744
:100DA0000FF2A470D04798F80060AA4C00270025E5
:100DB000FFF777FD20B9FFF799FD05460136F7E704
:100DC0000020A54CA54D7146FFF77EFD8E46FFF72E
:100DD0006CFD50B9304601F097F9FFF742FDFFF77F
:100DE000A8FDFFF70BFB0646F1E7002001F08CF9A8
:100DF00098F80010DBF80060974C994D49F82100F5
:100E0000481C88F80000FFF746FD50B9304601F055
:100E10007BF9FFF726FDFFF78CFDFFF7EFFA06469B
:100E2000F1E78C4CDFF860570026002088F800605E
:100E30002146FFF770FD30B9FFF776FDFFF76FFD34
:100E4000FFF71AFDF4E7DFF8FC462046D0472046BE
:100E5000D0470FF2FC60D04798F800607D4C002727
:100E60000025FFF71EFD20B9FFF740FD05460136BE
:100E7000F7E70020784C794D7146FFF725FD8E4647
:100E8000FFF713FD50B9304601F070FAFFF7E9FCA7
:100E9000FFF74FFDFFF7B2FA0646F1E7002001F039
:100EA00065FA98F80010DBF800606B4C6C4D49F85F
:100EB0002100481C88F80000FFF7EDFC50B93046CF
:100EC00001F054FAFFF7CDFCFFF733FDFFF796FA78
:100ED0000646F1E75F4CDFF8B0560026002088F8A0
:100EE00000602146FFF717FD30B9FFF71DFDFFF742
:100EF00016FDFFF7C1FCF4E7DFF848462046D0476F
:100F00002046D0470FF25060D04798F80060514C0F
:100F100000270025FFF7C5FC20B9FFF7E7FC0546D1
:100F20000136F7E700204C4C4C4D7146FFF7CCFCE6
:100F30008E46FFF7BAFC50B9304601F0CDF8FFF706
:100F400090FCFFF7F6FCFFF759FA0646F1E70020A0
:100F500001F0C2F898F80010DBF800603E4C404DFC
:100F600049F82100481C88F80000FFF794FC50B9AC
:100F7000304601F0B1F8FFF774FCFFF7DAFCFFF739
:100F80003DFA0646F1E7334CDFF8FC550026002019
:100F900088F800602146FFF7BEFC30B9FFF7C4FCBB
:100FA000FFF7BDFCFFF768FCF4E7DFF89845204643
:100FB000D0472046D0470FF2A850D04798F800609D
:100FC000244C00270025FFF76CFC20B9FFF78EFCAE
:100FD00005460136F7E7234E1F4C204D002088F8C8
:100FE0000000FFF778FC50B9304601F069F8FFF7D0
:100FF00038FCFFF79EFCFFF701FA0646F1E7154CB7
:10100000DFF884550026002088F800602146FFF7AD
:1010100082FC30B9FFF788FCFFF781FCFFF72CFC5E
:10102000F4E7DFF820452046D0472046D047DFF8D8
:101030003805D04798F80060064C00270025FFF7D8
:1010400030FC88B9FFF752FC05460136F7E700BFD0
:10105000041002400000C8429A9999999999B93FA1
:101060009999B9BF000080BFDB4EDC4CDC4D0020FD
:1010700088F80000FFF72FFC50B9304601F014F853
:10108000FFF7EFFBFFF755FCFFF7B8F90646F1E76E
:10109000D44CDFF8F4540026002088F80060214684
:1010A000FFF739FC30B9FFF73FFCFFF738FCFFF7DB
:1010B000E3FBF4E7DFF88C442046D0472046D047D6
:1010C000DFF8A804D04798F80060C64C0027002538
:1010D000FFF7E7FB20B9FFF709FC05460136F7E704
:1010E0000020BE4CBE4D7146FFF7EEFB8E463046EB
:1010F000C8E90166FFF76FF9FFF71BFCFFF77EF900
:101100000746C8F80C0030460021FFF748F958B9E7
:101110003846314600F0ECFFFFF7A3FBFFF709FC70
:10112000FFF76CF90646E2E70020002100F0E0FF3F
:1011300098F80010DBF80060A84CAB4D49F821008E
:10114000481C88F80000FFF7A6FBA8B93046C8F88D
:101150000860FFF740F9FFF7ECFBFFF74FF9314666
:10116000C8F80C0000F0C4FFFFF77BFBFFF7E1FBC2
:10117000FFF744F90646E6E79A4CDFF80C540026E0
:10118000002088F800602146FFF7C5FB30B9FFF763
:10119000CBFBFFF7C4FBFFF76FFBF4E7DFF8A443DB
:1011A0002046D0472046D047DFF8C403D0478D4CB7
:1011B0000025002088F800502146FFF7ACFB90B9CD
:1011C000E8B200F05DFA01F00DF898F8001049F867
:1011D0002100D8F804004D1C4FF07E5188F80050D3
:1011E00000F012FAE8E7D44CDFF89C530026002008
:1011F00088F800602146FFF78EFB30B9FFF794FBBB
:10120000FFF78DFBFFF738FBF4E7CE4C2046D047C5
:101210002046D047D748D047C74C002588F8005013
:1012200028462146C8F80450FFF7B9F810BB2846F5
:101230004FF08041C8F8105000F0E6F90646C8F8B3
:1012400018002846FFF73CFB0146C8F81400284662
:10125000324600F0D3FF98F8001049F82100481CEE
:101260004FF07E5188F80000D8F8040000F0CCF967
:101270000546D5E7B04C0026C5A5002088F80060DB
:101280002146FFF748FB30B9FFF74EFBFFF747FB5E
:10129000FFF7F2FAF4E7AB4C2046D0472046D047A0
:1012A000B548D047A44CB94F00260025FFF7F9FAFE
:1012B00050B9F0B24FF07E5147F82050284600F068
:1012C000A3F905460136F1E79B4DB04C00260020FE
:1012D00088F800602946FFF71EFB30B9F1B22046BE
:1012E00001F020F8FFF70AFBF4E7934DA64E002724
:1012F000002088F800702946FFF70DFB38B9F8B2D6
:10130000FFF71BFBFFF7D7FAFFF71BFBF3E78D4D4A
:101310002846D0472846D0479848D047864D0027D2
:101320000026FFF7DFFA60B92846314600F090F951
:10133000F9B244F821003046FFF7C2FA06460137F9
:10134000EFE77D4D914C0026002088F8006029468B
:10135000FFF7E1FA30B9F1B2204600F0D1FFFFF714
:10136000CDFAF4E7744D884E0027002088F800700D
:101370002946FFF7D0FA38B9F8B2FFF7DEFAFFF7DF
:101380009AFAFFF7DEFAF3E76E4D2846D047284673
:10139000D0477B48D047684D00270026FFF7A2FAC8
:1013A00040B93046FFF78CFA0646F8B2013744F8E8
:1013B0002060F3E7604D754C0026002088F800603F
:1013C0002946FFF7A8FA88B9F1B2204600F022FFBB
:1013D000FFF794FAF4E700BF000080BF9A9999994B
:1013E0009999B93F0000C8429999B9BF524D664ECC
:1013F0000027002088F800702946FFF78CFA38B9DA
:10140000F8B2FFF79AFAFFF756FAFFF79AFAF3E7FE
:101410004C4D2846D0472846D0475A48D047464DDD
:1014200000270026FFF75EFA60B92846314600F033
:101430000FF9F9B244F821003046FFF741FA0646A9
:101440000137EFE73C4C514D0026002088F8006042
:101450002146FFF760FA30B9F1B2284600F074FF78
:10146000FFF74CFAF4E7344C474D0026002088F88B
:1014700000602146C8F80400FEF783FF30B1FFF793
:1014800053FAFFF74CFAFFF7F7F9F2E7FFF78EFB95
:1014900010B1FFF7A5FBF9E76420FFF7D7FBFFF7D3
:1014A000A7FBF3E70D0A5765416374205374756415
:1014B000696F20436F726520426F6172640D000096
:1014C0007D1F0008776561637473747564696F2E9E
:1014D00074616F62616F2E636F6D0D00776561637C
:1014E0007473747564696F2E616C69657870726568
:1014F00073732E636F6D0D00777777772E77656145
:1015000063742D74632E636E0D0A0D0008000020B5
:1015100053797374656D436C6B3A25640D0A000052
:1015200046505520546573740D00000053494E3ADF
:1015300000000000100000200000C842040000204D
:10154000C00100208A240008434F533A0D000000D8
:1015500054414E3A0D0000004154414E3A0D0000F6
:101560004153494E3A0D0000652400084D240008FF
:10157000822400086C2400085D240008552400081B
:101580007A24000872240008442400082C0000205B
:1015900025660A000B484FF47A710068B0FBF1F041
:1015A0000138B0F1807F00D3FEE70749F0224860A0
:1015B0000648027000228A6007220A6050210170EA
:1015C000704700BF0800002010E000E023ED00E0BD
:1015D0000FB4054B10B503A9044A029800F036F980
:1015E00010BC5DF814FB00006D0C0008000000202A
:1015F000044935220A60C86000BF00BF00BF886888
:101600007047000000400240044A40F2211313607A
:10161000D060116100BF9068704700000040024038
:10162000044A2D231360D06011615068C007FCD0BC
:101630009068704700400240044A40F2271313604C
:10164000D060116100BF9068704700000040024008
:10165000044A40F225131360D060116100BF906806
:101660007047000000400240044933220A60C8600D
:1016700000BF00BF00BF8868704700000040024004
:10168000C10F20F00042074833230360C26000BF4F
:1016900000BF00BF8068002903D04FF09E41FFF7D4
:1016A000B3BF70470040024002E008C8121F08C1E3
:1016B000002AFAD170477047002001E001C1121FD3
:1016C000002AFBD1704700002DE9FF5F82B00021A6
:1016D000DDE90430020DDDF840B0034318D044F6D4
:1016E0001050A2F2FF3242431514119801281FD066
:1016F000A5EB0B00401C5FEA000A4FF000064E4FBE
:10170000DFF83891B046504615D5CAF1000413E011
:10171000119801244AA3012801D16FEA0B01029814
:10172000119AC0E90031C0E9024206B0BDE8F09F5D
:10173000CBF10000DFE704460021404A491842EBA4
:101740000450CDE9001012E0E00707D032463B46D6
:1017500040464946FEF795FD8046894632463B465F
:1017600010461946FEF78DFD06460F466410002C04
:10177000EAD1DDE90401DDE90023BAF1000F06DA60
:10178000FEF77FFD42464B46FEF77BFD05E0FEF788
:101790004DFF42464B46FEF749FF04460E460022E7
:1017A000284BFEF7CBFF03D84FF0FF30014607E090
:1017B0000022254B20463146FEF7BCFCFEF7A5FF74
:1017C000102409E0002C0ADB0A220023FEF748FE61
:1017D000039B30321A55641E50EA0102F2D1641C98
:1017E000039AC4F111031444119A012A03D001226F
:1017F00008430DD10AE0084304D000204FF0110B3C
:10180000119072E7A3EB0B056D1E0DE05B4504DD47
:101810004FF0000205F1010504E003DA4FF0000289
:10182000A5F10105002AECD002981199C0E9023116
:10183000C0E9004579E70000000014400000F03FD7
:10184000300000000000F0430000E03F2DE9FF4FB2
:1018500095B09B468946064600250FE2252877D19C
:1018600000242746F84A0121059400E0044316F8B5
:10187000013F203B01FA03F01042F7D130782A28CB
:1018800011D06FF02F033078A0F13002092A16D85A
:10189000059A44F0020402EB820203EB4202104478
:1018A000761C0590EFE759F8042B0592002A03DA1D
:1018B000504244F40054059044F00204761C307801
:1018C0002E2816D116F8010F44F004042A280DD052
:1018D0006FF02F023078A0F13003092B09D807EB05
:1018E000870302EB4303C718761CF3E759F8047B20
:1018F000761C30786C280FD006DC4C2817D068286E
:101900000DD06A2814D104E0742810D07A280FD1A1
:101910000DE044F400140AE044F4801401E044F4BF
:1019200040147278824202D104F58014761C761C31
:10193000307866280BD013DC582877D009DC0028D3
:1019400075D04528F6D04628F4D047281AD19DE115
:1019500018E0632835D0642879D0652812D195E144
:10196000702873D008DC6728F1D069286FD06E2802
:101970000DD06F2806D1B5E073282CD0752875D00E
:10198000782874D05A46179990476D1C75E1C4F3B6
:101990000250022809D003280DD0D9F800100428DD
:1019A0000DD00D6009F1040967E1D9F80010EA17BC
:1019B000C1E90052F6E7D9F800100D80F2E70D708A
:1019C000F0E719F8041B8DF8001000208DF80100D5
:1019D000EA46012003E059F804AB4FF0FF306107FD
:1019E0004FF0000102D40DE008F101018846B94230
:1019F0000FDA8045F8DB1AF808100029F4D108E066
:101A000008F1010188468142FADB1AF80810002922
:101A1000F6D105985B46A0EB080721463846179A91
:101A200000F094FA284400EB080507E04DE029E1B6
:101A30000DE01AF8010B5A4617999047B8F10108C2
:101A4000F7D25B4621463846179A13E142E00A2254
:101A50000092C4F302524FF0000A022A08D059F84B
:101A600004CB032A4FEAEC710AD00DE029E02AE00A
:101A700009F1070121F00702F2E802C1914609E0ED
:101A80000FFA8CFC4FEAEC71042A03D14FFA8CFC5C
:101A90004FEAEC71002907DA0A460021DCF1000C5C
:101AA00061EB02012D2202E0220504D52B228DF8E4
:101AB0000420012203E0E20701D02022F7E790464C
:101AC00059E00A2102E010220DE010214FF0000A37
:101AD00000910BE010224FF0000A44F004040827A4
:101AE000009203E008224FF0000A0092C4F3025271
:101AF000022A05D059F804CB0021032A08D009E0B6
:101B000009F1070121F00702F2E802C1914605E060
:101B10001FFA8CFC042A01D10CF0FF0C4FF00008D6
:101B2000220728D5702806D0009B83F0100353EAC3
:101B30000A0305D00EE040228DF80420012208E0BF
:101B40005CEA010206D030228DF804208DF80500F1
:101B500002229046009B83F0080353EA0A030AD14D
:101B60005CEA010201D1620705D530228DF804201C
:101B70004FF001087F1E582804D034A003900EA80F
:101B800002900DE036A0F9E753466046009AFEF752
:101B900067FC84460398825C0298401E02900270A3
:101BA0005CEA0100F0D1029806A9081A00F1200AA7
:101BB000600702D524F4803400E00127574502DD98
:101BC000A7EB0A0000E0002000EB0A010090059856
:101BD0004144401A0590E00306D45B462146179A1B
:101BE000059800F0B3F90544002706E001A85A461D
:101BF000C05D179990476D1C7F1C4745F6DBE003DD
:101C00000CD55B462146179A059800F09FF90544CC
:101C100004E030205A46179990476D1C0099481EE1
:101C200000900029F5DC08E0029802995A460078F5
:101C3000491C0291179990476D1CBAF10001AAF155
:101C4000010AF1DC65E1000009280100303132337E
:101C500034353637383961626364656600000000E8
:101C600030313233343536373839414243444546D2
:101C70000000000000F058F90544761C3078002878
:101C80007FF4ECAD19B02846BDE8F08F620700D4B0
:101C9000062709F1070222F0070CFCE80223E146BF
:101CA00003F000485FEA080C02D00FF2702C0DE040
:101CB0005FEA045C02D50FF2682C07E05FEAC47C9F
:101CC00002D00FF2602C01E0AFF2700C4FF0FF3841
:101CD00023F00043CDF850C065280CD006DC452821
:101CE00009D046281DD047283DD13DE0662818D0B0
:101CF00067287ED138E00021112F01DB112000E0A0
:101D0000781CCDE9000106A90EA8FFF7DDFCDDE98E
:101D10000F010E9A03910021009207F1010A04912C
:101D20004DE04FF000400097CDE9011006A90EA844
:101D3000FFF7CAFCDDE90F0203920E9B1199002206
:101D4000DDF80CA00093049211B9791C00EB010A94
:101D5000B7EB0A0004D4C0F1FF3007F1010A049088
:101D6000AAEB0700019044E0012F00DA01270021CF
:101D7000112F01DD112000E03846CDE9000106A950
:101D80000EA8FFF7A1FCDDE90F010E9A03910021D7
:101D900004910092BA4621070CD40399514500DA08
:101DA0008A46BAF1010F05DD009AAAF10101515CE2
:101DB000302908D0B84202DA10F1040F06DA012106
:101DC000CDE9011015E0AAF10101E9E7002805DCE1
:101DD000049901440491AAEB000102E0411C514521
:101DE00000DD8A460499401A401C01904FF00040E3
:101DF0000290200704D40198504501DBCDF80480FF
:101E000000208DF84F0002980DF14F07B0F1004F00
:101E100025D02B200E9002984FF0020800280CDAF3
:101E2000404202902D200E9007E00A210298FEF712
:101E300001FB3031029007F8011DB8F10001A8F153
:101E40000108F2DC02980028EFD1791E0E98087084
:101E5000307800F0200040F0450007F8020D12A88D
:101E6000C01B00F107081498007800B1012000EBB6
:101E70000A01019801EBE07105984144401A401EA7
:101E80000590E00306D45B462146179A059800F0BA
:101E90005DF805441498007818B15A461799904790
:101EA0006D1CE00324D55B462146179A059800F087
:101EB0004DF805441CE00498002807DBDDE9030128
:101EC000884203DD0098405C179901E017993020A3
:101ED0005A469047049805F10105401C049001986A
:101EE000401E019004D12E205A46179990476D1C30
:101EF000BAF10001AAF1010ADDDC05E017F8010BD7
:101F00005A46179990476D1CB8F10001A8F10108D5
:101F1000F4DC5B462146179A0598ABE62D000000DD
:101F20002B000000200000002DE9F04104460025B0
:101F30001E461746880404D405E039462020B047E1
:101F40006D1C641EF9D52846BDE8F0812DE9F041ED
:101F5000044600251E469046C80301D5302700E000
:101F60002027880404D505E041463846B0476D1C5B
:101F7000641EF9D52846BDE8F081000010B504467E
:101F800001E0FEF773FE14F8010B04490028F8D1B4
:101F9000BDE810400A20FEF769BE000000000020E6
:101FA00070B50646FEF717FA04460D460E49304650
:101FB000FFF742FBFFF71CFBFFF756FBFEF70BFAA0
:101FC0000A4A0B4BFEF75DF922462B46FEF756F9FF
:101FD000FEF714FA07490B220A60C8604868C00778
:101FE000FCD0886870BD000083F9223E182D44544F
:101FF000FB2119400040024070B50646FEF7EBF9A0
:1020000004460D460E493046FFF716FBFFF7F0FA7F
:10201000FFF72AFBFEF7DFF90A4A0B4BFEF731F90F
:1020200022462B46FEF72AF9FEF7E8F9074909226E
:102030000A60C8604868C007FCD0886870BD0000AE
:1020400083F9223E182D4454FB21194000400240E0
:1020500070B50646FEF7BFF904460D460E493046F8
:10206000FFF7EAFAFFF7C4FAFFF7FEFAFEF7B3F953
:102070000A4A0B4BFEF705F922462B46FEF7FEF8FF
:10208000FEF7BCF907490D220A60C8604868C0071E
:10209000FCD0886870BD000083F9A23E182D44541E
:1020A000FB21094000400240044903220A60C86045
:1020B0004868C007FCD088687047000000400240B4
:1020C000044901220A60C8604868C007FCD08868DB
:1020D0007047000000400240044905220A60C860C1
:1020E0004868C007FCD08868704700000040024084
:1020F000044A07231360D16010615068C007FCD008
:1021000090687047004002402DE9F04104462D4898
:102110002D4D844202D82D4884424CDB2B482C495B
:1021200040422044884205D32648491EC0432044EB
:1021300088423BD214F1FF4F01D384F0004425497B
:102140002046FFF761FA2449FFF776FA4FF07C57F3
:102150003946FFF759FAFFF74BFA0646FFF784FABC
:102160003946FFF775FA06EBD67121F00101761AB0
:1021700007461A49FFF760FA804619493846FFF7C3
:102180005BFA01462046FFF763FA4146FFF760FA23
:1021900009212960E8606868C007FCD026B1A868FA
:1021A00080F00040BDE8F081A868FBE72046BDE86C
:1021B000F041FFF7F5BE0B202860EC606868C007AF
:1021C000FCD0F1E7E4CB16C100400240E4CB16415D
:1021D0001C84AC06DB0FC93F83F9A23E22AA7D3ADC
:1021E000000049400449AF220A60C8604868C0073F
:1021F000FCD08868704700000040024010B5044BD6
:102200002B241C60D86019611A6100BF986810BD4A
:1022100000400240272202EB0123064A13600368B4
:10222000D36002E050F8043F1361491EC9B2F9D2ED
:1022300090687047004002402DE9F041044628486C
:10224000844202D8274884423ADB26482649404245
:102250002044884205D32248491EC0432044884276
:1022600038D22248844201D3012700E0002784426B
:1022700001D384F000441E492046FFF7DDF94FF0FA
:102280007C51FFF7C1F9FFF7B3F90546FFF7ECF909
:1022900005F0010506467D401649FFF7CDF90746D2
:1022A00015493046FFF7C8F901462046FFF7D0F937
:1022B0003946FFF7CDF915B180F0004400E004463F
:1022C0000E4809210160C4604168C907FCD08068DC
:1022D000BDE8F0812046BDE8F041FFF78DBE00006B
:1022E000E4CB16C1E4CB16411C84AC060000808010
:1022F00083F9A23E22AA7D3A0000494000400240F4
:10230000252202EB0123064A13600368D36002E032
:1023100050F8043F1361491EC9B2F9D29068704762
:1023200000400240212202EB0123064A13600368A9
:10233000D36002E050F8043F1361491EC9B2F9D2DC
:102340009068704700400240232202EB0123064AB6
:1023500013600368D36002E050F8043F1361491E24
:10236000C9B2F9D290687047004002402DE9F047A9
:1023700005462A480D272A4C854202D8294885421D
:1023800044DB2848284940422844884205D3234852
:10239000491EC0432844884233D224494FF07C561A
:1023A00015F1FF4F284605D3FFF746F93146FFF7F1
:1023B0004FF904E0FFF740F93146FFF725F9FFF741
:1023C00017F90646FFF750F980461949FFF734F927
:1023D000814618494046FFF72FF901462846FFF786
:1023E00037F94946FFF734F92760E0606068C007B5
:1023F000FCD0F0070FD0A168BDE8F0470E48FFF70A
:102400000FB92846BDE8F047FFF722BE2760E56018
:102410006068C007FCD0A068BDE8F087E4CB16C1B7
:1024200000400240E4CB16411C84AC0683F9223FF5
:1024300022AAFD390000C93F000080BF0000000053
:102440000102030425352E3131660D0A0041544145
:102450004E323A0D007375625F4E3A0D0073756D22
:102460005F4E3A0D0041434F533A0D006D61633AA0
:102470000D0073756D73713A0D0070726463743A78
:102480000D00696E76737172743A0D00B024000805
:102490000000002010000000A8160008C02400085A
:1024A0001000002040070000B816000800000000DF
:1024B00000000000D00F494000D8B805000000001F
:04000005080000FDF2
:00000001FF
