:020000040800F2
:100000001004002011010008350200083102000828
:1000100033020008850100083B06000800000000CC
:10002000000000000000000000000000BD04000807
:100030008701000800000000D1020008BF0400088A
:100040002B0100082B0100082B0100086D0400089B
:100050002B0100082B0100082B0100082B010008D0
:100060002B0100082B0100082B0100082B010008C0
:100070002B0100082B0100082B0100082B010008B0
:100080002B0100082B0100082B0100082B010008A0
:100090002B0100082B0100082B0100082B01000890
:1000A0002B0100082B0100082B0100082B01000880
:1000B0002B0100082B0100082B0100082B01000870
:1000C0002B0100082B0100082B0100082B01000860
:1000D0002B0100082B0100082B0100082B01000850
:1000E0002B0100082B0100082B0100082B01000840
:1000F0002B0100082B0100082B010008DFF80CD0B1
:1001000000F02EF8004800473D07000810040020CA
:100110000648804706480047FEE7FEE7FEE7FEE7A1
:10012000FEE7FEE7FEE7FEE7FEE7FEE7C5040008A0
:10013000FD00000830B50B460146002020220124B6
:1001400009E021FA02F59D4205D303FA02F5491BA5
:1001500004FA02F52844151EA2F10102F1DC30BDBB
:10016000064C074D06E0E06840F0010394E8070004
:1001700098471034AC42F6D3FFF7C4FF080A0008D2
:10018000280A0008FEE77047F0B5CB7803F00F02AD
:100190001B0644BF8B781A430B881C061CD00368CF
:1001A000012400254FF00F0C202D13D00F883C4266
:1001B0000DD00CFA05F602FA05F7B3433B43CF78AE
:1001C000482F03D0282F08BF446100E004610435A4
:1001D0006400E9E703600B88B3F5807F1CD34368B4
:1001E0004FF4807400254FF00F0C202D13D00F8892
:1001F0003C420DD00CFA05F602FA05F7B3433B4337
:10020000CF78482F03D0282F08BF446100E0046155
:1002100004356400E9E74360F0BD8068084018BF1A
:10022000012070471023002A08BF1423C1507047D3
:10023000FEE7FEE77047000010B5114B1C6804F4A0
:10024000E064A4F54074B4F5A06F31BF230A0D4CEF
:100250001C6004239940C3F104030F2424FA03F320
:100260001A401143084A0901831883F8001300F06B
:100270001F010123401103FA01F142F8201010BDC3
:100280000CED00E00007FA0500E100E0016841F430
:100290008071016070470A6822EA000008607047B8
:1002A0000A68104308607047086820F01000086072
:1002B000704742EA002008607047016841F0010180
:1002C000016070470148FFF7E1BF00BF00700040C8
:1002D000704700000F4900F003000A6822F44072E2
:1002E000FFF7E7BF0149FFF7DBBF00BF1C1002406B
:1002F0000149FFF7D5BF00BF181002400148FFF7C2
:10030000DCBF00BF241002400248016841F40041F4
:10031000016070472010024080B500F02DF80449BC
:1003200004A20968C1F30311515CC84080BD00BF3D
:10033000041002400000000000000000010203045D
:100340000607080970B5184E0C460546FFF7E4FF8E
:100350003DB13168074AC1F30221515C20FA01F135
:10036000296034B13168034AC1F3C221515CC840ED
:10037000206070BD000A00080B49086800F0030205
:100380000A48022A08D10A680B68C2F38342023283
:10039000DB0302D406485043704709685043C1F359
:1003A0004041C840704700BF0410024000127A006C
:1003B00000093D000221B1EB102F06D0010A0129EE
:1003C00006D039B97149096804E07049496A01E009
:1003D0006E49096AC0B221FA00F000F001007047CE
:1003E0003549FFF758BF00BF10B54FF08050FFF7F9
:1003F00079FFFFF767FFFFF781FF40F20120FFF76A
:10040000D9FF0028F9D00220FFF764FFFFF77CFF37
:1004100000F048F8084CA047012000F01FF8A04762
:1004200047F6FF7000F00AF8A047032000210022E1
:10043000BDE81040FFF700BF990400081E490A6894
:1004400042F010020A60020C4B6862F303034B6037
:100450008A6860F30F028A60FFF726BF02490A68C4
:1004600010430860704700BF0028004080B501209D
:1004700000F00CF840B10120FFF7B2FF00F00EF9D8
:10048000BDE8804000F008B880BD00000A49096856
:10049000084018BF01207047074801688906FCD54D
:1004A000704700BF0448016821F00801016001683D
:1004B0000907FCD5704700BF04280040704700F0D2
:1004C00023B9000081B03148314A016841F001018F
:1004D0000160416811402F4A41600168114001608C
:1004E000016821F480210160416821F4FE0141602E
:1004F0004FF41F018160016841F4803101600021E7
:1005000000910099090B042905D80168890302D4D8
:1005100000990131F4E70168890330D51E490223AF
:100520000A6842F010020A600A6863F302020A6075
:100530000422416821F0F0014160416821F46051DA
:100540004160416862F30A2107224160416841F439
:1005500080314160416862F395414160016841F03A
:100560008071016001688901FCD54168022262F353
:1005700001014160416801F00C010829FAD10748E6
:100580004FF00061016001B0704700BF00100240F1
:100590000000FFF8FFFFF6FE0020024008ED00E03B
:1005A000BCB50446C0680D464EF6F3110840A97A62
:1005B000084329890843A98808434CF6FF71E06085
:1005C00020690840E98808434FF6FF4120616069CF
:1005D0000840A989084360615748844219BF01A8AF
:1005E000002101A90020FFF7ADFE019919206FF04D
:1005F0006303484329688900B0FBF1F06421B0FB34
:10060000F1F202FB0300322303EB0010B0FBF1F028
:1006100000F00F0040EA0210A060BCBDC16841F4C8
:100620000051C16070470068084018BF0120704742
:10063000426861F3080242607047FEE7E0B50420BB
:10064000FFF756FE03480190084801A9FFF79CFDFB
:100650008CBD00BF0100032880B504480121FFF7CD
:10066000DCFD002818BF012080BD00BF000801404C
:10067000E0B50820FFF73CFE03480190064801A9B9
:10068000FFF782FD8CBD00BF0400038002480421F7
:100690000022FFF7C7BD00BF000C014002480168FF
:1006A00081F00401016070470C0C014010B586B068
:1006B00044F20400FFF71CFE0E481F4C0590A4F501
:1006C000405005A9FFF760FD4FF4E1310020019192
:1006D0000821ADF81000ADF80C00029020468DF80E
:1006E0000E1001A9FFF75CFF2046FFF797FF06B049
:1006F00010BD00BF0002038806490A6810440A685A
:100700008242FCD3704700BF02480168013101609A
:10071000704700BF08000020B0B5074D0446C1B2C5
:100720002846FFF785FF28468021FFF77CFF002839
:10073000F9D02046B0BD00BF0038014000F066F897
:10074000FFF796FFFFF77AFFFFF7B0FF144C0DA0FD
:10075000A04714A0A04719A0A0471FA0A047234866
:10076000016823A000F070F825A0A047FFF73CFE29
:10077000FFF772FF08B1FFF789FF6420FFF7BCFFA6
:10078000F6E700BF0D0A5765416374205374756422
:10079000696F20436F726520426F6172640D0000C3
:1007A000DD090008776561637473747564696F2E81
:1007B00074616F62616F2E636F6D0D0077656163A9
:1007C0007473747564696F2E616C69657870726595
:1007D00073732E636F6D0D00777777772E77656172
:1007E00063742D74632E636E0D0A0D0004000020E7
:1007F00053797374656D436C6B3A25640D0A000080
:1008000052544320546573740D0000000B484FF49C
:100810007A710068B0FBF1F00138B0F1807F00D34D
:10082000FEE70749F02248600648027000228A600D
:1008300007220A6050210170704700BF04000020A9
:1008400010E000E023ED00E00FB4054B10B503A964
:10085000044A029800F018F810BC5DF814FB000080
:10086000190700080000002002E008C8121F08C194
:10087000002AFAD170477047002001E001C1121F21
:10088000002AFBD1704700002DE9FF4F89B09B463D
:100890000446002506E025280BD05A460B999047C0
:1008A000641C6D1C20780028F5D10DB02846BDE8E9
:1008B000F08F0027B8460122474900E0074314F8AB
:1008C000013F203B02FA03F00842F7D120782E289E
:1008D00019D114F8010F47F004072A280ED06FF041
:1008E0002F022078A0F1300109290CD808EB8801EB
:1008F00002EB410100EB0108641CF2E70A98641C5A
:1009000050F8048B0A9020780028CED0642808D0B4
:10091000692806D075281ED05A460B9990476D1C41
:1009200058E00A994FF00A0901C90A91002802DA31
:1009300040422D2102E0390504D52B218DF82010ED
:10094000012103E0F90704D02021F7E78A4608AE29
:100950000DE00021FAE70A994FF00A0901C90A914E
:10096000F7E74946FFF7E6FB303106F8011D00289E
:10097000F7D1ADEB060000F12009780701D44FF064
:100980000108C84502DDA8EB090000E00020804610
:10099000002706E008A85A46C05D0B9990476D1CD9
:1009A0007F1C5745F6DB04E030205A460B999047F0
:1009B0006D1CB8F10001A8F10108F5DC05E016F89E
:1009C000010B5A460B9990476D1CB9F10001A9F132
:1009D0000109F4DC641C65E70928010010B5044630
:1009E00001E0FFF799FE14F8010B04490028F8D143
:1009F000BDE810400A20FFF78FBE00000000002075
:100A00000000000001020304280A00080000002082
:100A10000800000068080008300A000808000020EC
:100A200008040000780800080000000000A24A0442
:04000005080000FDF2
:00000001FF
